{
  "contractName": "FarmDApp",
  "abi": [
    {
      "inputs": [],
      "stateMutability": "nonpayable",
      "type": "constructor"
    },
    {
      "anonymous": false,
      "inputs": [
        {
          "indexed": true,
          "internalType": "address",
          "name": "farmer",
          "type": "address"
        },
        {
          "indexed": false,
          "internalType": "uint256",
          "name": "milkSoldToDairy",
          "type": "uint256"
        },
        {
          "indexed": false,
          "internalType": "uint256",
          "name": "milkSoldToCustomers",
          "type": "uint256"
        },
        {
          "indexed": false,
          "internalType": "uint256",
          "name": "timestamp",
          "type": "uint256"
        }
      ],
      "name": "MilkSold",
      "type": "event"
    },
    {
      "anonymous": false,
      "inputs": [
        {
          "indexed": true,
          "internalType": "address",
          "name": "customer",
          "type": "address"
        },
        {
          "indexed": false,
          "internalType": "uint256",
          "name": "moocoinsEarned",
          "type": "uint256"
        },
        {
          "indexed": false,
          "internalType": "uint256",
          "name": "timestamp",
          "type": "uint256"
        }
      ],
      "name": "MooCoinsEarned",
      "type": "event"
    },
    {
      "anonymous": false,
      "inputs": [
        {
          "indexed": false,
          "internalType": "address",
          "name": "customerAddress",
          "type": "address"
        },
        {
          "indexed": false,
          "internalType": "uint256",
          "name": "moocoinsEarned",
          "type": "uint256"
        }
      ],
      "name": "TopCustomerInfo",
      "type": "event"
    },
    {
      "inputs": [
        {
          "internalType": "address",
          "name": "",
          "type": "address"
        }
      ],
      "name": "customerChurn",
      "outputs": [
        {
          "internalType": "bool",
          "name": "cycledToFarm",
          "type": "bool"
        },
        {
          "internalType": "bool",
          "name": "boughtDirectly",
          "type": "bool"
        },
        {
          "internalType": "bool",
          "name": "returnedGlassBottle",
          "type": "bool"
        },
        {
          "internalType": "uint256",
          "name": "moocoinsEarned",
          "type": "uint256"
        }
      ],
      "stateMutability": "view",
      "type": "function"
    },
    {
      "inputs": [
        {
          "internalType": "uint256",
          "name": "",
          "type": "uint256"
        }
      ],
      "name": "customers",
      "outputs": [
        {
          "internalType": "address",
          "name": "",
          "type": "address"
        }
      ],
      "stateMutability": "view",
      "type": "function"
    },
    {
      "inputs": [
        {
          "internalType": "uint256",
          "name": "",
          "type": "uint256"
        }
      ],
      "name": "dailySales",
      "outputs": [
        {
          "internalType": "uint256",
          "name": "milkSoldToDairy",
          "type": "uint256"
        },
        {
          "internalType": "uint256",
          "name": "milkSoldToCustomers",
          "type": "uint256"
        }
      ],
      "stateMutability": "view",
      "type": "function"
    },
    {
      "inputs": [],
      "name": "owner",
      "outputs": [
        {
          "internalType": "address",
          "name": "",
          "type": "address"
        }
      ],
      "stateMutability": "view",
      "type": "function"
    },
    {
      "inputs": [
        {
          "internalType": "uint256",
          "name": "",
          "type": "uint256"
        }
      ],
      "name": "topCustomerAddresses",
      "outputs": [
        {
          "internalType": "address",
          "name": "",
          "type": "address"
        }
      ],
      "stateMutability": "view",
      "type": "function"
    },
    {
      "inputs": [
        {
          "internalType": "uint256",
          "name": "",
          "type": "uint256"
        }
      ],
      "name": "topMoocoins",
      "outputs": [
        {
          "internalType": "uint256",
          "name": "",
          "type": "uint256"
        }
      ],
      "stateMutability": "view",
      "type": "function"
    },
    {
      "inputs": [
        {
          "internalType": "uint256",
          "name": "_milkSoldToDairy",
          "type": "uint256"
        },
        {
          "internalType": "uint256",
          "name": "_milkSoldToCustomers",
          "type": "uint256"
        }
      ],
      "name": "uploadDailySales",
      "outputs": [],
      "stateMutability": "nonpayable",
      "type": "function"
    },
    {
      "inputs": [
        {
          "internalType": "bool",
          "name": "_cycledToFarm",
          "type": "bool"
        },
        {
          "internalType": "bool",
          "name": "_boughtDirectly",
          "type": "bool"
        },
        {
          "internalType": "bool",
          "name": "_returnedGlassBottle",
          "type": "bool"
        }
      ],
      "name": "earnMooCoins",
      "outputs": [],
      "stateMutability": "nonpayable",
      "type": "function"
    },
    {
      "inputs": [
        {
          "internalType": "address",
          "name": "customerAddress",
          "type": "address"
        }
      ],
      "name": "customerExists",
      "outputs": [
        {
          "internalType": "bool",
          "name": "",
          "type": "bool"
        }
      ],
      "stateMutability": "view",
      "type": "function"
    },
    {
      "inputs": [],
      "name": "getTopCustomers",
      "outputs": [],
      "stateMutability": "nonpayable",
      "type": "function"
    },
    {
      "inputs": [],
      "name": "fetchTopCustomers",
      "outputs": [
        {
          "internalType": "address[5]",
          "name": "",
          "type": "address[5]"
        },
        {
          "internalType": "uint256[5]",
          "name": "",
          "type": "uint256[5]"
        }
      ],
      "stateMutability": "view",
      "type": "function"
    }
  ],
  "bytecode": "0x608060405234801561001057600080fd5b50336000806101000a81548173ffffffffffffffffffffffffffffffffffffffff021916908373ffffffffffffffffffffffffffffffffffffffff16021790555061144b806100606000396000f3fe608060405234801561001057600080fd5b50600436106100a95760003560e01c8063689b009811610071578063689b0098146101665780637c790875146101965780638da5cb5b146101a0578063bc63640c146101be578063c0abda2a146101ee578063dcae51201461021e576100a9565b80630151023a146100ae57806316c590cf146100de5780631d6b8a391461010f5780633a5ce1781461012b57806361a60ed614610147575b600080fd5b6100c860048036038101906100c39190610e0c565b610251565b6040516100d59190611066565b60405180910390f35b6100f860048036038101906100f39190610e0c565b610287565b60405161010692919061118f565b60405180910390f35b61012960048036038101906101249190610dbd565b6102ab565b005b61014560048036038101906101409190610e35565b610479565b005b61014f6105cb565b60405161015d9291906110aa565b60405180910390f35b610180600480360381019061017b9190610d94565b61069b565b60405161018d91906110d4565b60405180910390f35b61019e610770565b005b6101a8610b62565b6040516101b59190611066565b60405180910390f35b6101d860048036038101906101d39190610e0c565b610b86565b6040516101e59190611174565b60405180910390f35b61020860048036038101906102039190610e0c565b610ba1565b6040516102159190611066565b60405180910390f35b61023860048036038101906102339190610d94565b610be0565b60405161024894939291906110ef565b60405180910390f35b6001816005811061026157600080fd5b016000915054906101000a900473ffffffffffffffffffffffffffffffffffffffff1681565b600b6020528060005260406000206000915090508060000154908060010154905082565b6000600c60003373ffffffffffffffffffffffffffffffffffffffff1673ffffffffffffffffffffffffffffffffffffffff1681526020019081526020016000209050831561032e5760018160000160006101000a81548160ff0219169083151502179055506005816001016000828254610326919061125a565b925050819055505b821561036e5760018160000160016101000a81548160ff021916908315150217905550600a816001016000828254610366919061125a565b925050819055505b81156103ae5760018160000160026101000a81548160ff02191690831515021790555060038160010160008282546103a6919061125a565b925050819055505b6103b73361069b565b61041f57600d339080600181540180825580915050600190039060005260206000200160009091909190916101000a81548173ffffffffffffffffffffffffffffffffffffffff021916908373ffffffffffffffffffffffffffffffffffffffff1602179055505b3373ffffffffffffffffffffffffffffffffffffffff167ffda07114cf6f83523e65f9b4786c44e7f782b73db791310116379bb74ece360182600101544260405161046b92919061118f565b60405180910390a250505050565b60008054906101000a900473ffffffffffffffffffffffffffffffffffffffff1673ffffffffffffffffffffffffffffffffffffffff163373ffffffffffffffffffffffffffffffffffffffff1614610507576040517f08c379a00000000000000000000000000000000000000000000000000000000081526004016104fe90611154565b60405180910390fd5b6000620151804261051891906112b0565b905082600b60008381526020019081526020016000206000016000828254610540919061125a565b9250508190555081600b6000838152602001908152602001600020600101600082825461056d919061125a565b925050819055503373ffffffffffffffffffffffffffffffffffffffff167f19f514f905a95616e6c83f3561439cfc5f6a4fadb203e21dbcf70d11939a965e8484426040516105be939291906111b8565b60405180910390a2505050565b6105d3610c37565b6105db610c59565b600160068160058060200260405190810160405280929190826005801561064d576020028201915b8160009054906101000a900473ffffffffffffffffffffffffffffffffffffffff1673ffffffffffffffffffffffffffffffffffffffff1681526020019060010190808311610603575b505050505091508060058060200260405190810160405280929190826005801561068c576020028201915b815481526020019060010190808311610678575b50505050509050915091509091565b600080600090505b600d80549050811015610765578273ffffffffffffffffffffffffffffffffffffffff16600d8281548110610701577f4e487b7100000000000000000000000000000000000000000000000000000000600052603260045260246000fd5b9060005260206000200160009054906101000a900473ffffffffffffffffffffffffffffffffffffffff1673ffffffffffffffffffffffffffffffffffffffff16141561075257600191505061076b565b808061075d90611329565b9150506106a3565b50600090505b919050565b6005600d8054905010156107b9576040517f08c379a00000000000000000000000000000000000000000000000000000000081526004016107b090611134565b60405180910390fd5b6107c1610c37565b6107c9610c59565b60005b6005811015610a665760008080600090505b600d8054905081101561099c576000600d8281548110610827577f4e487b7100000000000000000000000000000000000000000000000000000000600052603260045260246000fd5b9060005260206000200160009054906101000a900473ffffffffffffffffffffffffffffffffffffffff16905083600c60008373ffffffffffffffffffffffffffffffffffffffff1673ffffffffffffffffffffffffffffffffffffffff168152602001908152602001600020600101541115610988576000805b86811015610937578273ffffffffffffffffffffffffffffffffffffffff168982600581106108fa577f4e487b7100000000000000000000000000000000000000000000000000000000600052603260045260246000fd5b602002015173ffffffffffffffffffffffffffffffffffffffff1614156109245760019150610937565b808061092f90611329565b9150506108a2565b508061098657600c60008373ffffffffffffffffffffffffffffffffffffffff1673ffffffffffffffffffffffffffffffffffffffff1681526020019081526020016000206001015494508193505b505b50808061099490611329565b9150506107de565b50808584600581106109d7577f4e487b7100000000000000000000000000000000000000000000000000000000600052603260045260246000fd5b602002019073ffffffffffffffffffffffffffffffffffffffff16908173ffffffffffffffffffffffffffffffffffffffff168152505081848460058110610a48577f4e487b7100000000000000000000000000000000000000000000000000000000600052603260045260246000fd5b60200201818152505050508080610a5e90611329565b9150506107cc565b50816001906005610a78929190610c7b565b50806006906005610a8a929190610cf8565b5060005b6005811015610b5d577fe5edcfe011f6547eb4c4d7786baf1184c8d5a47f93dbe7453047f6058cfd1284838260058110610af1577f4e487b7100000000000000000000000000000000000000000000000000000000600052603260045260246000fd5b6020020151838360058110610b2f577f4e487b7100000000000000000000000000000000000000000000000000000000600052603260045260246000fd5b6020020151604051610b42929190611081565b60405180910390a18080610b5590611329565b915050610a8e565b505050565b60008054906101000a900473ffffffffffffffffffffffffffffffffffffffff1681565b60068160058110610b9657600080fd5b016000915090505481565b600d8181548110610bb157600080fd5b906000526020600020016000915054906101000a900473ffffffffffffffffffffffffffffffffffffffff1681565b600c6020528060005260406000206000915090508060000160009054906101000a900460ff16908060000160019054906101000a900460ff16908060000160029054906101000a900460ff16908060010154905084565b6040518060a00160405280600590602082028036833780820191505090505090565b6040518060a00160405280600590602082028036833780820191505090505090565b8260058101928215610ce7579160200282015b82811115610ce65782518260006101000a81548173ffffffffffffffffffffffffffffffffffffffff021916908373ffffffffffffffffffffffffffffffffffffffff16021790555091602001919060010190610c8e565b5b509050610cf49190610d38565b5090565b8260058101928215610d27579160200282015b82811115610d26578251825591602001919060010190610d0b565b5b509050610d349190610d38565b5090565b5b80821115610d51576000816000905550600101610d39565b5090565b600081359050610d64816113d0565b92915050565b600081359050610d79816113e7565b92915050565b600081359050610d8e816113fe565b92915050565b600060208284031215610da657600080fd5b6000610db484828501610d55565b91505092915050565b600080600060608486031215610dd257600080fd5b6000610de086828701610d6a565b9350506020610df186828701610d6a565b9250506040610e0286828701610d6a565b9150509250925092565b600060208284031215610e1e57600080fd5b6000610e2c84828501610d7f565b91505092915050565b60008060408385031215610e4857600080fd5b6000610e5685828601610d7f565b9250506020610e6785828601610d7f565b9150509250929050565b6000610e7d8383610ea1565b60208301905092915050565b6000610e958383611048565b60208301905092915050565b610eaa816112e1565b82525050565b610eb9816112e1565b82525050565b610ec881611203565b610ed28184611233565b9250610edd826111ef565b8060005b83811015610f0e578151610ef58782610e71565b9650610f0083611219565b925050600181019050610ee1565b505050505050565b610f1f8161120e565b610f29818461123e565b9250610f34826111f9565b8060005b83811015610f65578151610f4c8782610e89565b9650610f5783611226565b925050600181019050610f38565b505050505050565b610f76816112f3565b82525050565b6000610f89602783611249565b91507f4e6f7420656e6f75676820637573746f6d65727320746f2064657465726d696e60008301527f6520746f702035000000000000000000000000000000000000000000000000006020830152604082019050919050565b6000610fef602683611249565b91507f4f6e6c7920746865206f776e65722063616e20706572666f726d20746869732060008301527f616374696f6e00000000000000000000000000000000000000000000000000006020830152604082019050919050565b6110518161131f565b82525050565b6110608161131f565b82525050565b600060208201905061107b6000830184610eb0565b92915050565b60006040820190506110966000830185610eb0565b6110a36020830184611057565b9392505050565b6000610140820190506110c06000830185610ebf565b6110cd60a0830184610f16565b9392505050565b60006020820190506110e96000830184610f6d565b92915050565b60006080820190506111046000830187610f6d565b6111116020830186610f6d565b61111e6040830185610f6d565b61112b6060830184611057565b95945050505050565b6000602082019050818103600083015261114d81610f7c565b9050919050565b6000602082019050818103600083015261116d81610fe2565b9050919050565b60006020820190506111896000830184611057565b92915050565b60006040820190506111a46000830185611057565b6111b16020830184611057565b9392505050565b60006060820190506111cd6000830186611057565b6111da6020830185611057565b6111e76040830184611057565b949350505050565b6000819050919050565b6000819050919050565b600060059050919050565b600060059050919050565b6000602082019050919050565b6000602082019050919050565b600081905092915050565b600081905092915050565b600082825260208201905092915050565b60006112658261131f565b91506112708361131f565b9250827fffffffffffffffffffffffffffffffffffffffffffffffffffffffffffffffff038211156112a5576112a4611372565b5b828201905092915050565b60006112bb8261131f565b91506112c68361131f565b9250826112d6576112d56113a1565b5b828204905092915050565b60006112ec826112ff565b9050919050565b60008115159050919050565b600073ffffffffffffffffffffffffffffffffffffffff82169050919050565b6000819050919050565b60006113348261131f565b91507fffffffffffffffffffffffffffffffffffffffffffffffffffffffffffffffff82141561136757611366611372565b5b600182019050919050565b7f4e487b7100000000000000000000000000000000000000000000000000000000600052601160045260246000fd5b7f4e487b7100000000000000000000000000000000000000000000000000000000600052601260045260246000fd5b6113d9816112e1565b81146113e457600080fd5b50565b6113f0816112f3565b81146113fb57600080fd5b50565b6114078161131f565b811461141257600080fd5b5056fea2646970667358221220511687350a7459a0dfc7045d67d01420183723a8bab32a558763ad748b533ab364736f6c63430008000033",
  "immutableReferences": {},
  "source": "// SPDX-License-Identifier: MIT\npragma solidity ^0.8.0;\n\ncontract FarmDApp {\n    address public owner;\n    bool private topCustomersRetrieved;\n    address[5] public topCustomerAddresses;\n    uint256[5] public topMoocoins;\n\n    // Struct to represent daily sales data\n    struct DailySales {\n        uint256 milkSoldToDairy;\n        uint256 milkSoldToCustomers;\n    }\n\n    // Mapping to store daily sales data for each day\n    mapping(uint256 => DailySales) public dailySales;\n\n    // Struct to represent customer churn data\n    struct Churn {\n        bool cycledToFarm;\n        bool boughtDirectly;\n        bool returnedGlassBottle;\n        uint256 moocoinsEarned;\n    }\n\n    // Mapping to store customer churn data\n    mapping(address => Churn) public customerChurn;\n\n    // Dynamic array to store customer addresses\n    address[] public customers;\n\n    // Event to log milk sales\n    event MilkSold(address indexed farmer, uint256 milkSoldToDairy, uint256 milkSoldToCustomers, uint256 timestamp);\n\n    // Event to log MooCoins earned by a customer\n    event MooCoinsEarned(address indexed customer, uint256 moocoinsEarned, uint256 timestamp);\n\n    // Event to log top customer information\n    event TopCustomerInfo(address customerAddress, uint256 moocoinsEarned);\n\n    modifier onlyOwner() {\n        require(msg.sender == owner, \"Only the owner can perform this action\");\n        _;\n    }\n\n    constructor() {\n        owner = msg.sender;\n    }\n\n    // Function for the farmer to upload daily milk sales data\n    function uploadDailySales(uint256 _milkSoldToDairy, uint256 _milkSoldToCustomers) external onlyOwner {\n        uint256 today = block.timestamp / 1 days;\n\n        dailySales[today].milkSoldToDairy += _milkSoldToDairy;\n        dailySales[today].milkSoldToCustomers += _milkSoldToCustomers;\n\n        emit MilkSold(msg.sender, _milkSoldToDairy, _milkSoldToCustomers, block.timestamp);\n    }\n\n    // Function for the customer to earn MooCoins by performing activities\n    function earnMooCoins(bool _cycledToFarm, bool _boughtDirectly, bool _returnedGlassBottle) external {\n        Churn storage churn = customerChurn[msg.sender];\n\n        if (_cycledToFarm) {\n            churn.cycledToFarm = true;\n            churn.moocoinsEarned += 5; // arbitrary value, you can adjust as needed\n        }\n\n        if (_boughtDirectly) {\n            churn.boughtDirectly = true;\n            churn.moocoinsEarned += 10; // arbitrary value, you can adjust as needed\n        }\n\n        if (_returnedGlassBottle) {\n            churn.returnedGlassBottle = true;\n            churn.moocoinsEarned += 3; // arbitrary value, you can adjust as needed\n        }\n\n        // If the customer is interacting for the first time, add their address to the customers array\n        if (!customerExists(msg.sender)) {\n            customers.push(msg.sender);\n        }\n\n        emit MooCoinsEarned(msg.sender, churn.moocoinsEarned, block.timestamp);\n    }\n\n    // Function to check if a customer already exists in the array\n    function customerExists(address customerAddress) public view returns (bool) {\n        for (uint256 i = 0; i < customers.length; i++) {\n            if (customers[i] == customerAddress) {\n                return true;\n            }\n        }\n        return false;\n    }\n\n    // Function to return top 5 customers by MooCoins\n    function getTopCustomers() external {\n        require(customers.length >= 5, \"Not enough customers to determine top 5\");\n\n        address[5] memory tempCustomerAddresses;\n        uint256[5] memory tempMoocoins;\n\n        for (uint256 i = 0; i < 5; i++) {\n            uint256 maxMoocoins = 0;\n            address topCustomer;\n\n            for (uint256 j = 0; j < customers.length; j++) {\n                address customerAddress = customers[j];\n\n                if (customerChurn[customerAddress].moocoinsEarned > maxMoocoins) {\n                    bool customerAlreadyAdded = false;\n                    for (uint256 k = 0; k < i; k++) {\n                        if (tempCustomerAddresses[k] == customerAddress) {\n                            customerAlreadyAdded = true;\n                            break;\n                        }\n                    }\n\n                    if (!customerAlreadyAdded) {\n                        maxMoocoins = customerChurn[customerAddress].moocoinsEarned;\n                        topCustomer = customerAddress;\n                    }\n                }\n            }\n\n            tempCustomerAddresses[i] = topCustomer;\n            tempMoocoins[i] = maxMoocoins;\n        }\n\n        // Store top customers in state variables\n        topCustomerAddresses = tempCustomerAddresses;\n        topMoocoins = tempMoocoins;\n\n        // Emit event for each of the top customers\n        for (uint256 i = 0; i < 5; i++) {\n              emit TopCustomerInfo(tempCustomerAddresses[i], tempMoocoins[i]);\n        }\n    }\n\n    // Function to fetch top customer information\n    function fetchTopCustomers() external view returns (address[5] memory, uint256[5] memory) {\n        return (topCustomerAddresses, topMoocoins);\n    }\n}\n",
  "sourcePath": "C:\\Users\\lisaa\\OneDrive\\NCIRL\\S3\\PROJECT - FARM DAPP\\Farm Dapp\\FarmDappTruffle\\contracts\\FarmDApp.sol",
  "compiler": {
    "name": "solc",
    "version": "0.8.0+commit.c7dfd78e.Emscripten.clang"
  },
  "schemaVersion": "3.4.16",
  "updatedAt": "2023-12-18T22:38:45.746Z",
  "devdoc": {
    "kind": "dev",
    "methods": {},
    "version": 1
  },
  "userdoc": {
    "kind": "user",
    "methods": {},
    "version": 1
  }
}