{
  "contractName": "FarmDApp",
  "abi": [
    {
      "inputs": [],
      "stateMutability": "nonpayable",
      "type": "constructor"
    },
    {
      "anonymous": false,
      "inputs": [
        {
          "indexed": true,
          "internalType": "address",
          "name": "farmer",
          "type": "address"
        },
        {
          "indexed": false,
          "internalType": "uint256",
          "name": "milkSoldToDairy",
          "type": "uint256"
        },
        {
          "indexed": false,
          "internalType": "uint256",
          "name": "milkSoldToCustomers",
          "type": "uint256"
        },
        {
          "indexed": false,
          "internalType": "uint256",
          "name": "timestamp",
          "type": "uint256"
        }
      ],
      "name": "MilkSold",
      "type": "event"
    },
    {
      "anonymous": false,
      "inputs": [
        {
          "indexed": true,
          "internalType": "address",
          "name": "customer",
          "type": "address"
        },
        {
          "indexed": false,
          "internalType": "uint256",
          "name": "moocoinsEarned",
          "type": "uint256"
        },
        {
          "indexed": false,
          "internalType": "uint256",
          "name": "timestamp",
          "type": "uint256"
        }
      ],
      "name": "MooCoinsEarned",
      "type": "event"
    },
    {
      "anonymous": false,
      "inputs": [
        {
          "indexed": false,
          "internalType": "address",
          "name": "customerAddress",
          "type": "address"
        },
        {
          "indexed": false,
          "internalType": "uint256",
          "name": "moocoinsEarned",
          "type": "uint256"
        }
      ],
      "name": "TopCustomerInfo",
      "type": "event"
    },
    {
      "inputs": [
        {
          "internalType": "address",
          "name": "",
          "type": "address"
        }
      ],
      "name": "customerChurn",
      "outputs": [
        {
          "internalType": "bool",
          "name": "cycledToFarm",
          "type": "bool"
        },
        {
          "internalType": "bool",
          "name": "boughtDirectly",
          "type": "bool"
        },
        {
          "internalType": "bool",
          "name": "returnedGlassBottle",
          "type": "bool"
        },
        {
          "internalType": "uint256",
          "name": "moocoinsEarned",
          "type": "uint256"
        }
      ],
      "stateMutability": "view",
      "type": "function"
    },
    {
      "inputs": [
        {
          "internalType": "uint256",
          "name": "",
          "type": "uint256"
        }
      ],
      "name": "customers",
      "outputs": [
        {
          "internalType": "address",
          "name": "",
          "type": "address"
        }
      ],
      "stateMutability": "view",
      "type": "function"
    },
    {
      "inputs": [
        {
          "internalType": "uint256",
          "name": "",
          "type": "uint256"
        }
      ],
      "name": "dailySales",
      "outputs": [
        {
          "internalType": "uint256",
          "name": "milkSoldToDairy",
          "type": "uint256"
        },
        {
          "internalType": "uint256",
          "name": "milkSoldToCustomers",
          "type": "uint256"
        }
      ],
      "stateMutability": "view",
      "type": "function"
    },
    {
      "inputs": [],
      "name": "owner",
      "outputs": [
        {
          "internalType": "address",
          "name": "",
          "type": "address"
        }
      ],
      "stateMutability": "view",
      "type": "function"
    },
    {
      "inputs": [
        {
          "internalType": "uint256",
          "name": "",
          "type": "uint256"
        }
      ],
      "name": "topCustomerAddresses",
      "outputs": [
        {
          "internalType": "address",
          "name": "",
          "type": "address"
        }
      ],
      "stateMutability": "view",
      "type": "function"
    },
    {
      "inputs": [
        {
          "internalType": "uint256",
          "name": "",
          "type": "uint256"
        }
      ],
      "name": "topMoocoins",
      "outputs": [
        {
          "internalType": "uint256",
          "name": "",
          "type": "uint256"
        }
      ],
      "stateMutability": "view",
      "type": "function"
    },
    {
      "inputs": [
        {
          "internalType": "uint256",
          "name": "_milkSoldToDairy",
          "type": "uint256"
        },
        {
          "internalType": "uint256",
          "name": "_milkSoldToCustomers",
          "type": "uint256"
        }
      ],
      "name": "uploadDailySales",
      "outputs": [],
      "stateMutability": "nonpayable",
      "type": "function"
    },
    {
      "inputs": [
        {
          "internalType": "bool",
          "name": "_cycledToFarm",
          "type": "bool"
        },
        {
          "internalType": "bool",
          "name": "_boughtDirectly",
          "type": "bool"
        },
        {
          "internalType": "bool",
          "name": "_returnedGlassBottle",
          "type": "bool"
        }
      ],
      "name": "earnMooCoins",
      "outputs": [],
      "stateMutability": "nonpayable",
      "type": "function"
    },
    {
      "inputs": [
        {
          "internalType": "address",
          "name": "customerAddress",
          "type": "address"
        }
      ],
      "name": "customerExists",
      "outputs": [
        {
          "internalType": "bool",
          "name": "",
          "type": "bool"
        }
      ],
      "stateMutability": "view",
      "type": "function"
    },
    {
      "inputs": [],
      "name": "getTopCustomers",
      "outputs": [],
      "stateMutability": "nonpayable",
      "type": "function"
    },
    {
      "inputs": [],
      "name": "fetchTopCustomers",
      "outputs": [
        {
          "internalType": "address[5]",
          "name": "",
          "type": "address[5]"
        },
        {
          "internalType": "uint256[5]",
          "name": "",
          "type": "uint256[5]"
        }
      ],
      "stateMutability": "view",
      "type": "function"
    }
  ],
  "bytecode": "0x608060405234801561000f575f80fd5b50335f806101000a81548173ffffffffffffffffffffffffffffffffffffffff021916908373ffffffffffffffffffffffffffffffffffffffff1602179055506112f28061005c5f395ff3fe608060405234801561000f575f80fd5b50600436106100a7575f3560e01c8063689b00981161006f578063689b0098146101635780637c790875146101935780638da5cb5b1461019d578063bc63640c146101bb578063c0abda2a146101eb578063dcae51201461021b576100a7565b80630151023a146100ab57806316c590cf146100db5780631d6b8a391461010c5780633a5ce1781461012857806361a60ed614610144575b5f80fd5b6100c560048036038101906100c09190610c3c565b61024e565b6040516100d29190610ca6565b60405180910390f35b6100f560048036038101906100f09190610c3c565b610282565b604051610103929190610cce565b60405180910390f35b61012660048036038101906101219190610d2a565b6102a2565b005b610142600480360381019061013d9190610d7a565b610463565b005b61014c6105ac565b60405161015a929190610f02565b60405180910390f35b61017d60048036038101906101789190610f54565b61067b565b60405161018a9190610f8e565b60405180910390f35b61019b610723565b005b6101a5610a23565b6040516101b29190610ca6565b60405180910390f35b6101d560048036038101906101d09190610c3c565b610a46565b6040516101e29190610fa7565b60405180910390f35b61020560048036038101906102009190610c3c565b610a5f565b6040516102129190610ca6565b60405180910390f35b61023560048036038101906102309190610f54565b610a9a565b6040516102459493929190610fc0565b60405180910390f35b6001816005811061025d575f80fd5b015f915054906101000a900473ffffffffffffffffffffffffffffffffffffffff1681565b600b602052805f5260405f205f91509050805f0154908060010154905082565b5f600c5f3373ffffffffffffffffffffffffffffffffffffffff1673ffffffffffffffffffffffffffffffffffffffff1681526020019081526020015f209050831561031f576001815f015f6101000a81548160ff0219169083151502179055506005816001015f8282546103179190611030565b925050819055505b821561035d576001815f0160016101000a81548160ff021916908315150217905550600a816001015f8282546103559190611030565b925050819055505b811561039b576001815f0160026101000a81548160ff0219169083151502179055506003816001015f8282546103939190611030565b925050819055505b6103a43361067b565b61040957600d33908060018154018082558091505060019003905f5260205f20015f9091909190916101000a81548173ffffffffffffffffffffffffffffffffffffffff021916908373ffffffffffffffffffffffffffffffffffffffff1602179055505b3373ffffffffffffffffffffffffffffffffffffffff167ffda07114cf6f83523e65f9b4786c44e7f782b73db791310116379bb74ece3601826001015442604051610455929190610cce565b60405180910390a250505050565b5f8054906101000a900473ffffffffffffffffffffffffffffffffffffffff1673ffffffffffffffffffffffffffffffffffffffff163373ffffffffffffffffffffffffffffffffffffffff16146104f0576040517f08c379a00000000000000000000000000000000000000000000000000000000081526004016104e7906110e3565b60405180910390fd5b5f6201518042610500919061112e565b905082600b5f8381526020019081526020015f205f015f8282546105249190611030565b9250508190555081600b5f8381526020019081526020015f206001015f82825461054e9190611030565b925050819055503373ffffffffffffffffffffffffffffffffffffffff167f19f514f905a95616e6c83f3561439cfc5f6a4fadb203e21dbcf70d11939a965e84844260405161059f9392919061115e565b60405180910390a2505050565b6105b4610aea565b6105bc610b0c565b600160068160058060200260405190810160405280929190826005801561062d576020028201915b815f9054906101000a900473ffffffffffffffffffffffffffffffffffffffff1673ffffffffffffffffffffffffffffffffffffffff16815260200190600101908083116105e4575b505050505091508060058060200260405190810160405280929190826005801561066c576020028201915b815481526020019060010190808311610658575b50505050509050915091509091565b5f805f90505b600d80549050811015610719578273ffffffffffffffffffffffffffffffffffffffff16600d82815481106106b9576106b8611193565b5b905f5260205f20015f9054906101000a900473ffffffffffffffffffffffffffffffffffffffff1673ffffffffffffffffffffffffffffffffffffffff160361070657600191505061071e565b8080610711906111c0565b915050610681565b505f90505b919050565b6005600d80549050101561076c576040517f08c379a000000000000000000000000000000000000000000000000000000000815260040161076390611277565b60405180910390fd5b610774610aea565b61077c610b0c565b5f5b6005811015610974575f80805f90505b600d805490508110156108f6575f600d82815481106107b0576107af611193565b5b905f5260205f20015f9054906101000a900473ffffffffffffffffffffffffffffffffffffffff16905083600c5f8373ffffffffffffffffffffffffffffffffffffffff1673ffffffffffffffffffffffffffffffffffffffff1681526020019081526020015f206001015411156108e2575f805b86811015610893578273ffffffffffffffffffffffffffffffffffffffff1689826005811061085757610856611193565b5b602002015173ffffffffffffffffffffffffffffffffffffffff16036108805760019150610893565b808061088b906111c0565b915050610825565b50806108e057600c5f8373ffffffffffffffffffffffffffffffffffffffff1673ffffffffffffffffffffffffffffffffffffffff1681526020019081526020015f206001015494508193505b505b5080806108ee906111c0565b91505061078e565b508085846005811061090b5761090a611193565b5b602002019073ffffffffffffffffffffffffffffffffffffffff16908173ffffffffffffffffffffffffffffffffffffffff16815250508184846005811061095657610955611193565b5b6020020181815250505050808061096c906111c0565b91505061077e565b50816001906005610986929190610b2e565b50806006906005610998929190610baa565b505f5b6005811015610a1e577fe5edcfe011f6547eb4c4d7786baf1184c8d5a47f93dbe7453047f6058cfd12848382600581106109d8576109d7611193565b5b60200201518383600581106109f0576109ef611193565b5b6020020151604051610a03929190611295565b60405180910390a18080610a16906111c0565b91505061099b565b505050565b5f8054906101000a900473ffffffffffffffffffffffffffffffffffffffff1681565b60068160058110610a55575f80fd5b015f915090505481565b600d8181548110610a6e575f80fd5b905f5260205f20015f915054906101000a900473ffffffffffffffffffffffffffffffffffffffff1681565b600c602052805f5260405f205f91509050805f015f9054906101000a900460ff1690805f0160019054906101000a900460ff1690805f0160029054906101000a900460ff16908060010154905084565b6040518060a00160405280600590602082028036833780820191505090505090565b6040518060a00160405280600590602082028036833780820191505090505090565b8260058101928215610b99579160200282015b82811115610b98578251825f6101000a81548173ffffffffffffffffffffffffffffffffffffffff021916908373ffffffffffffffffffffffffffffffffffffffff16021790555091602001919060010190610b41565b5b509050610ba69190610bea565b5090565b8260058101928215610bd9579160200282015b82811115610bd8578251825591602001919060010190610bbd565b5b509050610be69190610bea565b5090565b5b80821115610c01575f815f905550600101610beb565b5090565b5f80fd5b5f819050919050565b610c1b81610c09565b8114610c25575f80fd5b50565b5f81359050610c3681610c12565b92915050565b5f60208284031215610c5157610c50610c05565b5b5f610c5e84828501610c28565b91505092915050565b5f73ffffffffffffffffffffffffffffffffffffffff82169050919050565b5f610c9082610c67565b9050919050565b610ca081610c86565b82525050565b5f602082019050610cb95f830184610c97565b92915050565b610cc881610c09565b82525050565b5f604082019050610ce15f830185610cbf565b610cee6020830184610cbf565b9392505050565b5f8115159050919050565b610d0981610cf5565b8114610d13575f80fd5b50565b5f81359050610d2481610d00565b92915050565b5f805f60608486031215610d4157610d40610c05565b5b5f610d4e86828701610d16565b9350506020610d5f86828701610d16565b9250506040610d7086828701610d16565b9150509250925092565b5f8060408385031215610d9057610d8f610c05565b5b5f610d9d85828601610c28565b9250506020610dae85828601610c28565b9150509250929050565b5f60059050919050565b5f81905092915050565b5f819050919050565b610dde81610c86565b82525050565b5f610def8383610dd5565b60208301905092915050565b5f602082019050919050565b610e1081610db8565b610e1a8184610dc2565b9250610e2582610dcc565b805f5b83811015610e55578151610e3c8782610de4565b9650610e4783610dfb565b925050600181019050610e28565b505050505050565b5f60059050919050565b5f81905092915050565b5f819050919050565b610e8381610c09565b82525050565b5f610e948383610e7a565b60208301905092915050565b5f602082019050919050565b610eb581610e5d565b610ebf8184610e67565b9250610eca82610e71565b805f5b83811015610efa578151610ee18782610e89565b9650610eec83610ea0565b925050600181019050610ecd565b505050505050565b5f61014082019050610f165f830185610e07565b610f2360a0830184610eac565b9392505050565b610f3381610c86565b8114610f3d575f80fd5b50565b5f81359050610f4e81610f2a565b92915050565b5f60208284031215610f6957610f68610c05565b5b5f610f7684828501610f40565b91505092915050565b610f8881610cf5565b82525050565b5f602082019050610fa15f830184610f7f565b92915050565b5f602082019050610fba5f830184610cbf565b92915050565b5f608082019050610fd35f830187610f7f565b610fe06020830186610f7f565b610fed6040830185610f7f565b610ffa6060830184610cbf565b95945050505050565b7f4e487b71000000000000000000000000000000000000000000000000000000005f52601160045260245ffd5b5f61103a82610c09565b915061104583610c09565b925082820190508082111561105d5761105c611003565b5b92915050565b5f82825260208201905092915050565b7f4f6e6c7920746865206f776e65722063616e20706572666f726d2074686973205f8201527f616374696f6e0000000000000000000000000000000000000000000000000000602082015250565b5f6110cd602683611063565b91506110d882611073565b604082019050919050565b5f6020820190508181035f8301526110fa816110c1565b9050919050565b7f4e487b71000000000000000000000000000000000000000000000000000000005f52601260045260245ffd5b5f61113882610c09565b915061114383610c09565b92508261115357611152611101565b5b828204905092915050565b5f6060820190506111715f830186610cbf565b61117e6020830185610cbf565b61118b6040830184610cbf565b949350505050565b7f4e487b71000000000000000000000000000000000000000000000000000000005f52603260045260245ffd5b5f6111ca82610c09565b91507fffffffffffffffffffffffffffffffffffffffffffffffffffffffffffffffff82036111fc576111fb611003565b5b600182019050919050565b7f4e6f7420656e6f75676820637573746f6d65727320746f2064657465726d696e5f8201527f6520746f70203500000000000000000000000000000000000000000000000000602082015250565b5f611261602783611063565b915061126c82611207565b604082019050919050565b5f6020820190508181035f83015261128e81611255565b9050919050565b5f6040820190506112a85f830185610c97565b6112b56020830184610cbf565b939250505056fea2646970667358221220092685f662f4acd2ac16cb631f60def896cb10ae84d98858f63cd7742e02d1dd64736f6c63430008150033",
  "immutableReferences": {},
  "source": "// SPDX-License-Identifier: MIT\r\npragma solidity ^0.8.21;\r\n\r\ncontract FarmDApp {\r\n    address public owner;\r\n    bool private topCustomersRetrieved;\r\n    address[5] public topCustomerAddresses;\r\n    uint256[5] public topMoocoins;\r\n\r\n    // Struct to represent daily sales data\r\n    struct DailySales {\r\n        uint256 milkSoldToDairy;\r\n        uint256 milkSoldToCustomers;\r\n    }\r\n\r\n    // Mapping to store daily sales data for each day\r\n    mapping(uint256 => DailySales) public dailySales;\r\n\r\n    // Struct to represent customer churn data\r\n    struct Churn {\r\n        bool cycledToFarm;\r\n        bool boughtDirectly;\r\n        bool returnedGlassBottle;\r\n        uint256 moocoinsEarned;\r\n    }\r\n\r\n    // Mapping to store customer churn data\r\n    mapping(address => Churn) public customerChurn;\r\n\r\n    // Dynamic array to store customer addresses\r\n    address[] public customers;\r\n\r\n    // Event to log milk sales\r\n    event MilkSold(address indexed farmer, uint256 milkSoldToDairy, uint256 milkSoldToCustomers, uint256 timestamp);\r\n\r\n    // Event to log MooCoins earned by a customer\r\n    event MooCoinsEarned(address indexed customer, uint256 moocoinsEarned, uint256 timestamp);\r\n\r\n    // Event to log top customer information\r\n    event TopCustomerInfo(address customerAddress, uint256 moocoinsEarned);\r\n\r\n    modifier onlyOwner() {\r\n        require(msg.sender == owner, \"Only the owner can perform this action\");\r\n        _;\r\n    }\r\n\r\n    constructor() {\r\n        owner = msg.sender;\r\n    }\r\n\r\n    // Function for the farmer to upload daily milk sales data\r\n    function uploadDailySales(uint256 _milkSoldToDairy, uint256 _milkSoldToCustomers) external onlyOwner {\r\n        uint256 today = block.timestamp / 1 days;\r\n\r\n        dailySales[today].milkSoldToDairy += _milkSoldToDairy;\r\n        dailySales[today].milkSoldToCustomers += _milkSoldToCustomers;\r\n\r\n        emit MilkSold(msg.sender, _milkSoldToDairy, _milkSoldToCustomers, block.timestamp);\r\n    }\r\n\r\n    // Function for the customer to earn MooCoins by performing activities\r\n    function earnMooCoins(bool _cycledToFarm, bool _boughtDirectly, bool _returnedGlassBottle) external {\r\n        Churn storage churn = customerChurn[msg.sender];\r\n\r\n        if (_cycledToFarm) {\r\n            churn.cycledToFarm = true;\r\n            churn.moocoinsEarned += 5; // arbitrary value, you can adjust as needed\r\n        }\r\n\r\n        if (_boughtDirectly) {\r\n            churn.boughtDirectly = true;\r\n            churn.moocoinsEarned += 10; // arbitrary value, you can adjust as needed\r\n        }\r\n\r\n        if (_returnedGlassBottle) {\r\n            churn.returnedGlassBottle = true;\r\n            churn.moocoinsEarned += 3; // arbitrary value, you can adjust as needed\r\n        }\r\n\r\n        // If the customer is interacting for the first time, add their address to the customers array\r\n        if (!customerExists(msg.sender)) {\r\n            customers.push(msg.sender);\r\n        }\r\n\r\n        emit MooCoinsEarned(msg.sender, churn.moocoinsEarned, block.timestamp);\r\n    }\r\n\r\n    // Function to check if a customer already exists in the array\r\n    function customerExists(address customerAddress) public view returns (bool) {\r\n        for (uint256 i = 0; i < customers.length; i++) {\r\n            if (customers[i] == customerAddress) {\r\n                return true;\r\n            }\r\n        }\r\n        return false;\r\n    }\r\n\r\n    // Function to return top 5 customers by MooCoins\r\n    function getTopCustomers() external {\r\n        require(customers.length >= 5, \"Not enough customers to determine top 5\");\r\n\r\n        address[5] memory tempCustomerAddresses;\r\n        uint256[5] memory tempMoocoins;\r\n\r\n        for (uint256 i = 0; i < 5; i++) {\r\n            uint256 maxMoocoins = 0;\r\n            address topCustomer;\r\n\r\n            for (uint256 j = 0; j < customers.length; j++) {\r\n                address customerAddress = customers[j];\r\n\r\n                if (customerChurn[customerAddress].moocoinsEarned > maxMoocoins) {\r\n                    bool customerAlreadyAdded = false;\r\n                    for (uint256 k = 0; k < i; k++) {\r\n                        if (tempCustomerAddresses[k] == customerAddress) {\r\n                            customerAlreadyAdded = true;\r\n                            break;\r\n                        }\r\n                    }\r\n\r\n                    if (!customerAlreadyAdded) {\r\n                        maxMoocoins = customerChurn[customerAddress].moocoinsEarned;\r\n                        topCustomer = customerAddress;\r\n                    }\r\n                }\r\n            }\r\n\r\n            tempCustomerAddresses[i] = topCustomer;\r\n            tempMoocoins[i] = maxMoocoins;\r\n        }\r\n\r\n        // Store top customers in state variables\r\n        topCustomerAddresses = tempCustomerAddresses;\r\n        topMoocoins = tempMoocoins;\r\n\r\n        // Emit event for each of the top customers\r\n        for (uint256 i = 0; i < 5; i++) {\r\n              emit TopCustomerInfo(tempCustomerAddresses[i], tempMoocoins[i]);\r\n        }\r\n    }\r\n\r\n    // Function to fetch top customer information\r\n    function fetchTopCustomers() external view returns (address[5] memory, uint256[5] memory) {\r\n        return (topCustomerAddresses, topMoocoins);\r\n    }\r\n}\r\n",
  "sourcePath": "C:\\Users\\lisaa\\OneDrive\\NCIRL\\S3\\PROJECT - FARM DAPP\\Farm Dapp\\FarmDappTruffle\\contracts\\FarmDApp.sol",
  "compiler": {
    "name": "solc",
    "version": "0.8.21+commit.d9974bed.Emscripten.clang"
  },
  "schemaVersion": "3.4.16",
  "updatedAt": "2023-12-19T01:16:40.284Z",
  "devdoc": {
    "kind": "dev",
    "methods": {},
    "version": 1
  },
  "userdoc": {
    "kind": "user",
    "methods": {},
    "version": 1
  }
}